:020000040800F2
:10000000C80D0020F12F0008D12E0008D32E0008C3
:10001000D52E0008D72E0008D92E000800000000B9
:10002000000000000000000000000000DB2E0008BF
:10003000DD2E000800000000DF2E0008E12E000881
:100040000130000805300008093000080D300008B4
:100050001130000815300008193000081D30000864
:100060002130000825300008293000082D30000814
:100070003130000835300008393000083D300008C4
:100080004130000845300008493000084D30000874
:10009000E52E00085130000855300008593000089E
:1000A0005D300008613000086530000869300008E4
:1000B0006D30000871300008EB2E00087530000824
:1000C000793000087D300008813000088530000854
:1000D000893000088D300008913000089530000804
:1000E000993000089D300008A130000878B5040060
:1000F00085B045D004F52A75687820B900212970AB
:10010000204600F0F9FC03206870206800F02AFE09
:1001100083B000F048F80EBC206800F019FE0028FB
:100120002CD12068002100F023FE00212820002689
:100130000AE000FB01F222442832012353701170BF
:10014000D181002300F028F862689142F1D30021A8
:1001500009E000FB01F2224402F5B47200231170A1
:10016000537000F019F862689142F2D383B000F046
:100170001AF80EBC206800F0FDFD18B1022068706E
:10018000012007E084F8240001216970206801F053
:10019000B2FA002006B070BD491CD67013615661DA
:1001A0009361C9B27047211D6846202201F0D6BA7A
:1001B00010B500F0C2FB01D1022010BD00F0B9FB68
:1001C000206800F0C7FDAAE30021204600F077BDBB
:1001D0002DE9F84F064686B000F02CFB000400F134
:1001E000BD8000F027FB40050CD500F00BFB4FF65F
:1001F000FF3000F003FB304600F0B5FC0021304634
:1002000000F0A0FB00F016FB400405D500F0FAFA60
:100210004BF6FF7000F0F2FA00F00CFB800405D5FD
:1002200000F0F0FA4DF6FF7000F0E8FA00F002FB83
:10023000C00418D53168B1F840204FF6FB70024079
:10024000A1F840204FF6F7703168B1F84020024025
:10025000A1F84020304600F0A6FC00F0D3FA4EF69C
:10026000FF7000F0CBFA00F0E5FA000544D500205D
:1002700001A9326832F8203021F81030401C0828DB
:10028000F7D33068B0F8402042F00102A0F84020D7
:100290004FF6FE703268B2F840300340A2F84030AA
:1002A0003268B2F844004305FAD54FF6FF30B2F891
:1002B00044400440A2F844400020336831F8102044
:1002C00023F82020401C0828F7D33068B0F84010ED
:1002D00041F00801A0F840104FF2FF7000F092FAD0
:1002E00000F08CFA3068B0F8401041F00401A0F83A
:1002F0004010304600F049FC00F09CFA800508D51B
:1003000000F080FA4FF6FF5000F078FA304600F027
:1003100026FC00F08FFAC00505D500F073FA4FF601
:10032000FF6000F06BFA07B0BDE8F08F012802D142
:1003300000F05BFA138079619BB27A89306801F032
:10034000E6F93168387831F8202048F6BF731A4052
:1003500082F030024AEA020A21F820A0306800F157
:1003600044010A8813047FF53CAF0A8812F00F0598
:1003700048F2800A4BF68F7B40F68F7448F60F796F
:1003800040F09D80D2062DD4018809EA0101024681
:1003900041F40049A2F8009006F124043068B0F856
:1003A0005010227901EBC20100EB410000F2044041
:1003B0000088A169C0F3090020620844A0610021FF
:1003C000304600F0C3FB20780028C7D0E069002841
:1003D000C4D12178306841F08001A0F84C10002190
:1003E0002170BBE7024606F5B4751288130514D5D3
:1003F000898900F0F1F9EA88C3F30903EB6106F596
:100400002C7101F096F9306801880C4044F08004AA
:100410000480304600F08AFBA0E710049ED53168C6
:100420000A881440084644F0800404803068B0F81C
:10043000501000F0D1F9C3F30903002BEB611CBF8E
:10044000696900290AD0EA8801F073F96869E969E5
:10045000014469613046002100F06EFB306801887C
:100460000A05D9D4B0F850201118286901F20C41BE
:1004700048B9088848F2FF32104008800B8843F4DE
:1004800000430B8010E03F2805D24208C00748BF58
:10049000521C900207E0420910F01F0F08BF521EC5
:1004A000900240F400400880306801880BEA0101A6
:1004B00081F440514AEA010AA0F800A04EE7024642
:1004C00048F68F7832F825100091282200986A4368
:1004D00032440104059240F19E80306830F82510C6
:1004E0000C4044F0800420F82540059901F5B477CC
:1004F000387B90B93068B0F850103A7801EBC201FF
:1005000000EB410303F20C431C88C4F30904002CE4
:100510006DD0FA887969234667E0F878022848F2B6
:10052000C0022FD1009B3468B96903F040005B041E
:100530003B78A446B4F8504004EBC3040CEB440CE5
:1005400011D50CF2044C00F041F92CBF091B00211D
:10055000B96109B900F07CF908B100F057F9002C35
:1005600045D03A893EE00CF20C4C00F02FF92CBF3C
:10057000091B0021B96109B900F06AF978BB00F0E4
:1005800045F92CE03168387831F8203008EA030367
:100590000C461A4324F8202038783168024631F896
:1005A000223059040FD53268B2F8501001EBC00167
:1005B00002EB410000F204400488C4F30904002C5B
:1005C00015D03A890EE03168B1F8502002EBC00234
:1005D00001EB420000F20C400488C4F30904002C33
:1005E00005D07A8923467969306801F0A2F8F86964
:1005F0002018F8617A6922447A61B86938B138699B
:10060000844204D33068394600F064FD03E0397851
:10061000304600F091FA009801067FF59FAE0598EC
:1006200000F12807306830F8251009EA010141F48B
:10063000004920F82590F878032818BF002800F01A
:10064000A280022803D10098C10540F19C80326845
:10065000B86997F800C000991346B2F8502001F429
:100660008044490602EBCC024CF2800503EB4203C6
:100670004CD503F204431B88C3F30903834234BF00
:10068000C01A00200028B8610ED100F003F9002C38
:1006900009D03168387831F8202008EA020245EAAA
:1006A000020821F820804CE60CB100F0C6F897F85B
:1006B00024000128F7D100F0D7F8F0B900F0B0F825
:1006C0004BB9028848F2FF3422400280058845F485
:1006D0000045058016E03F2B05D25A08DC0748BFCD
:1006E000521C920207E05A0913F01F0F08BF521E56
:1006F000920242F40042028004E0012802D100F09C
:100700008FF8038079619BB23A8917E603F20C43B4
:100710001B88C3F3090398422CBFC01A002000288D
:10072000B86104D100F0B6F8002CBCD1B1E70CB927
:1007300000F083F897F824000128B4D100F094F871
:10074000346800287FF4F2AD00F04FF84BB9108800
:1007500048F2FF3420401080158845F4004515808C
:10076000E9E53F2B06D25808DC0748BF401C800251
:100770001080E0E5580913F01F0F08BF401E8002EB
:1007800040F40040F4E730683978B0F8502002EBCC
:10079000C10200EB420000F204400288B869C2F3D3
:1007A0000902824234BF801A0020B86118B930466D
:1007B00000F0CCF9D2E5786910447861F9695218F3
:1007C000FA613946306800F085FCC7E5BCF80040A6
:1007D000C4F30904A14270472A7801EBC20100EB7F
:1007E000410303F20C431B887047B4F85000021910
:1007F0003C7802EB041202F20C4270470240A1F86E
:10080000442070473168B1F8442070473168387827
:1008100031F8203008EA03031A4321F820207047FA
:100820003068B0F850203C78101800EB041000F24B
:1008300004407047306800F060BF306830F82C101A
:1008400008EA0101024645EA010822F82C807047B7
:10085000316831F823C00BEA0C0B8BF4005B4AEAD9
:100860000B0B21F823B07047FA6978699A18FA617E
:10087000C1183A69386A904203D31346C01A3862E5
:1008800006E010B1034600203862002287F82420D9
:1008900078787047787888B93068B0F850201018A8
:1008A00000EB0C1000F2044048F2FF3201881140C6
:1008B0000180038843F4004303800BE001282AD120
:1008C0003068B0F85020101800EB0C1000F2044013
:1008D000002101803268787888B9B2F85000811818
:1008E0003A7801EB021101F20C4148F2FF3208881C
:1008F000104008800B8843F400430B800BE0012874
:1009000009D1B2F8500081183A7801EB021101F2D6
:100910000C41002008803046397800F017B90121D9
:10092000FFF753FC206800F0E4FE002084F8A802E2
:1009300010BD012084F8A8027047044694F8A8026C
:100940000128704710B5FFF7F8FF01D1022010BD54
:10095000FFF7EFFF84F82410206800F0C4FEE4E7FE
:1009600038B5054601F007042820444328190C0631
:1009700047BF00F12804012000F5B4740020607026
:1009800001F0070121702261E370607808B12178DD
:10099000E181022B04BF0020207195F8A8020128F4
:1009A00001D1022032BD012085F8A8022146286825
:1009B00000F0EEF968E010B5044600F08DF800F0A4
:1009C00084F801D1022010BD00F079F800F0FAFAA5
:1009D000ABE738B501F0070528246543441904F551
:1009E000B47401F007016261A3610022E2616270E8
:1009F0002170214614E038B51C4601F00705282374
:100A00005D43431928335A619C611C620122002412
:100A100001F0070183F82420DC615A70197019462F
:100A2000006800F057FB002032BD38B505460C4683
:100A3000696804F00700814201D2012032BD2821FB
:100A4000220605D54843284400F12801012004E08E
:100A50006143681800F5B4710020487001228A7063
:100A600004F007040C7095F8A802012801D10220B7
:100A700032BD85F8A822286800F0DFFD24B9286877
:100A800005F52C7100F03CFE002085F8A80232BD6F
:100A900010B5044601F00F036068984201D20120AE
:100AA00010BD00F019F80023837000F00EF801D19A
:100AB000022010BD00F003F800F0D8FD35E7012258
:100AC00084F8A82201462068704701F007010170F0
:100AD00094F8A8120129704701F007022820424328
:100AE000A0180A0603D5283001234370704700F58B
:100AF000B47000224270704700686B49884200D091
:100B0000704780B56948026842F400020260002222
:100B1000006800F40000009000210098142000F00C
:100B200043FEBDE80240142000F05BBE00F52C71CE
:100B3000D0F8E80200F0B0BE0B4628225343C2189A
:100B4000D0F8E802D2F87C2100F0D0BE0B46282273
:100B50005343C218D0F8E802D26B00F008BFD0F8B7
:100B6000E80200F098BF10B50446A068022818BF3C
:100B700001F042F8D4F8E802012100F078FFD4F83F
:100B8000E802BDE8104000F049BF10B50446D4F8B3
:100B9000E80200F06FFFA06920B14548016841F00C
:100BA0000601016010BDD0F8E80200F06BBF10B57F
:100BB000044640483C49C0F8E842C4F8C00201601D
:100BC000082202230021426083608161C1610162C9
:100BD000FFF78CFA08B101F00FF8D4F8C00218231F
:100BE0000022002101F00AF8D4F8C00258230022A4
:100BF000802101F003F8D4F8C0029823002281215B
:100C000000F0FCFFD4F8C002D8230022012100F03C
:100C1000F5FF002010BD80B5D0F8C002FFF7C8FA7C
:100C2000BDE802404CE010B51C461346D0F8C002A7
:100C30002246FFF795FEBDE8104041E080B5D0F8B0
:100C4000C002FFF7B8FEEBE780B5D0F8C002FFF7AF
:100C5000ECFEE5E780B5D0F8C002FFF719FFDFE74B
:100C6000D0F8C02201F07F0328204343D0180906A2
:100C700002D590F82A00704790F86A01704780B555
:100C8000D0F8C002FFF75EFECAE780B5D0F8C00218
:100C9000FFF7B1FEC4E780B5D0F8C002FFF799FEB8
:100CA000BEE7054870470000005C00401C10024091
:100CB00010ED00E068010020A40900207047704793
:100CC0000146002021B1022901D1012070470220F4
:100CD0007047F0B40246106895681318506803EB2B
:100CE0005004C00748BF4D44A3422DD013F8016BF8
:100CF00016F0030004BF13F8010BC01C31090F29C3
:100D000007D113F8011B0F3103E013F8017B05F83D
:100D1000017B401EF9D10029E6D013F8010BC6F380
:100D20008106032E08BF13F8016B00EB062040423A
:100D300028440026B71E8F421EBF10F8017B05F81D
:100D4000017B761CF6D1CFE7F0BC02F10C007047B6
:100D50000EB419E04030002181804FF43F42028000
:100D600000207047B0F8402044F2FF0100F0CABCF8
:100D7000002070470EB4012120F8401F002202809D
:100D80000023838000210182002003B0704700000F
:100D90002DE9F04F0B4602461C7832F82460DD78CE
:100DA00048F68F1100200E40032D0CD8DFE805F027
:100DB00002080C0546F4007606E046F4C06603E03F
:100DC00046F4806600E0012048F280052E4322F8B8
:100DD000246048F68F7619780C4632F8248006EAAB
:100DE00008073943294322F824104BF68F78197BE2
:100DF00093F800A000294CF2800C48F6BF7748F227
:100E0000C0095ED1D9884FF6FE7404EA010B597807
:100E10000029B2F8501012D0891801EB0A1101F51F
:100E2000806AAAF800B000F0BFF8DB78012B32F836
:100E3000213000F084801F4087F0200780E089186F
:100E400001EB0A1101F5816AAAF800B0B2F850105E
:100E50008C18197804EB011E19690EF20C4E69B951
:100E6000BEF8004048F2FF310C40AEF80040BEF83A
:100E7000007047F40047AEF8007011E03F2905D23A
:100E80004C08C90748BF641CA10207E04C0911F0D7
:100E90001F0F08BF641EA10241F40041AEF800100C
:100EA000197832F82140640406D532F821402640F2
:100EB0004CEA060622F8216000F070F883F44053F3
:100EC0005DE032F82A10314041F4014141F08001E7
:100ED00022F82A10B2F850401978B3F808A0A418E4
:100EE00004EB011404F580644FF6FE7101EA0A0A6E
:100EF000A4F800A0B2F850101C78891801EB041176
:100F000001F5816E59894FF6FE742140AEF800104C
:100F100059781C78002932F8241013D100F034F8E5
:100F200000F042F832F8214008EA040484F4405406
:100F300045EA040822F82180197832F821301F4050
:100F40003D431DE000F020F8197832F82140640696
:100F500006D532F82140264049EA060622F82160EB
:100F6000DC781978012C32F821401ABF274087F02D
:100F7000200727402F4322F8217000F00FF81D436F
:100F800022F82150BDE8F08F490406D532F824102C
:100F900031404CEA010C22F824C07047197832F82D
:100FA000213008EA03037047197832F821406406BB
:100FB00006D532F82140264049EA060622F821608B
:100FC000197870472DE9F041024691F800C0487841
:100FD0000B7B4BF68F7E4CF2800448F2800848F67B
:100FE000BF7548F2C00648F68F77ABB9002832F8D3
:100FF0002C0008D0400636D532F82C0007403E437E
:1010000022F82C602FE0400458D532F82C0007401D
:101010003C4322F82C4051E0002832F82C002BD120
:10102000400405D532F82C003840044322F82C4007
:10103000087832F820305B0605D532F820303B4086
:10104000334322F82030087832F820301F403E43E6
:1010500022F82060087832F820300EEA030348EACC
:10106000030E22F820E0087832F820100D4048EAFC
:10107000050822F820802AE0400405D532F82C002B
:101080003840204322F82C00087832F820305B06E4
:1010900005D532F820303B401E4322F82060087806
:1010A00032F820301F403C4322F82040087832F8C4
:1010B00020301D4048EA050522F82050087832F813
:1010C00020100EEA010148EA010E22F820E000207B
:1010D000BDE8F0812DE9F84F0E4605467278012AE9
:1010E00048F2800848F68F7140F03E81B469376954
:1010F000A74238BF3C46307B28B9F28800F08EFA10
:1011000000F078FA27E196F803B06309620896F8D0
:1011100000E0D6F82090BBF1020F04F0010048F285
:10112000801A7DD14F4570D235F82EC001EA0C01EE
:101130004AEA010125F82E1000F02EFABE4635F8D5
:101140002E905FEA496E33D591B900F03AFA14B99E
:1011500000F018FA17E03F2C02D200F001FA05E087
:1011600014F01F0F08BF5B1E00F0FEF908800AE0B4
:10117000012908D1B5F85000401900EB071E0EF206
:101180000C4EAEF8004000F048FA00F0E2F932BF31
:10119000001B0446002030627078002840F09280E6
:1011A00000F017FA07F204477AD100F0E1F98DE078
:1011B00091B900F0FEF914B900F0E4F90EE03F2C0B
:1011C00002D200F0CDF905E014F01F0F08BF5B1E3E
:1011D00000F0CAF9088001E000F024FA328900F03A
:1011E0001DFA00F0B6F932BF001B04460020306241
:1011F0007078002840F0A48000F0EBF907F20C476B
:1012000040F08C8000F0B4F99FE035F82E1048F6DD
:101210008F60014048EA010125F82E104C4653E04A
:1012200035F82EC001EA0C014AEA010125F82E101A
:1012300000F0B2F9BE4635F82E905FEA496E48D507
:1012400091B900F0BEF914B900F09CF917E03F2CF9
:1012500002D200F085F905E014F01F0F08BF5B1EF5
:1012600000F082F908800AE0012908D1B5F85000A1
:10127000401900EB071E0EF20C4EAEF8004000F0D5
:10128000CCF900F066F932BF001B04460020002CA8
:10129000306260D07078A8B900F084F907F2044792
:1012A0003F2C05D26008E10748BF401C800207E0E0
:1012B000600914F01F0F08BF401E800240F4004078
:1012C000388003E0012801D100F094F9A3B23289FB
:1012D0003DE091B900F06DF914B900F053F90EE05A
:1012E0003F2C02D200F03CF905E014F01F0F08BFBC
:1012F0005B1E00F039F9088001E000F093F93289B3
:1013000000F08CF900F025F932BF001B04460020E4
:10131000306204B3707898B900F076F93F2C05D2AA
:101320006008E10748BF401C800207E0600914F034
:101330001F0F08BF401E800240F40040388004E0C8
:10134000012802D100F060F93C80A3B27289716972
:10135000284600F0DCF9317835F8212048F6BF70D6
:10136000024082F0300217E0307B00282DD1B169B5
:101370003069884232BF091A08460021B16100F085
:1013800030F980B900F0F4F84BF68F70317835F809
:101390002120024082F4405248EA020825F82180C8
:1013A0000020BDE8F28F3F2806D24108C00748BFA1
:1013B000491C88023880E7E7410910F01F0F08BF79
:1013C000491E880240F40040F4E7F078022868D112
:1013D0001ABBB5F850203078521902EB0012306970
:1013E00002F2044248B9138848F2FF3003401380E8
:1013F000148844F4004414800FE03F2805D24308C9
:10140000C00748BF5B1C980206E0430910F01F0F9D
:1014100008BF5B1E00F0A8F81080707808BB00F0D1
:10142000C1F8306907F20C4748B93A8848F2FF30F2
:1014300002403A803B8843F400433B8019E03F2858
:1014400005D24208C00748BF521C900207E042097B
:1014500010F01F0F08BF521E900240F40040388069
:1014600007E0012805D1B5F85000326900F0CEF848
:101470003A80F069002887D0307835F8202044F28F
:10148000400303EA02049C4218BF1A4208D135F80F
:101490002020114041F4004141F0C00125F8201006
:1014A00072E7012853D1B1693069884232BF091A05
:1014B00008460021B161430900F00101440842BB24
:1014C000B5F850C03278AC440CEB021C0CF2044C62
:1014D00070B9BCF800E048F2FF3202EA0E0EACF838
:1014E00000E0BCF8009049F40049ACF8009010E02E
:1014F0003F2804D2224601B1521C920207E01A464C
:1015000010F01F0F08BF521E920242F40042ACF8C6
:1015100000207278B2B9B5F850205719327807EB2D
:101520000217002807F20C473FF42CAF3F2803D2E4
:1015300001B1641CA0023DE710F01F0F08BF5B1E45
:1015400098023FE7012AABD100F04BF832E70120C7
:1015500027E77069316920447061306A81427047C1
:1015600000B1521C90027047980240F4004070474E
:10157000398848F2FF30014039803A8842F400420D
:101580003A8070470A8848F2FF3002400A800B8890
:1015900043F400430B807047A9EB040131623778B4
:1015A00071787047B5F850004719307807EB00178D
:1015B0007047B5F85010491901EB071101F20441C9
:1015C0007047B5F85010491901EB071101F20C41B1
:1015D0007047B5F850004719307807EB0017002C1A
:1015E0007047B5F850104F19317807EB011707F223
:1015F0000C477047B5F850004719307807EB0017D3
:1016000007F204473C807047B5F85000471930781E
:1016100007EB001707F20C47704772897169A3B294
:10162000284674E0012907D1B5F85000401900EBB5
:10163000071000F204400480704710B50A7849781A
:1016400030F82240002948F2800305D048F6BF71E7
:101650000C4084F0100404E04BF68F710C4084F4CD
:101660008054234320F82230002010BD30B50A7B7F
:10167000002A36D14A780C78002A30F8242048F223
:10168000800348F68F7516D0520608D530F824200E
:10169000154045F4004545F0C00520F82450CA78AF
:1016A000012A1ED00A7830F8224048F6BF710C405B
:1016B00084F0200412E0520408D530F824201540AC
:1016C00045F4404545F0800520F824500A7830F86C
:1016D00022404BF68F710C4084F44054234320F891
:1016E0002230002030BD11B98021A0F84C1000201C
:1016F00070470020704700207047B0F844007047E2
:10170000002070470A40A0F840200020704710B524
:1017100000EB42005B1C00F580605B0807E00A7884
:101720004C7842EA0422891C20F8042B5B1EF6D177
:1017300010BD10B500EB420000F580605A0806E0CD
:1017400030F8044B0C70240A4C70891C521EF7D1DF
:10175000DA0744BF0088087010BD00004AB10000DD
:1017600011F8013B521E00F8013B1CBF11F8013B70
:10177000F8E770470901020002D4284881547047F5
:10178000274B02F00F021A4402F8041C7047254B45
:1017900019684FF6FF020002114000F4E0600843B0
:1017A000214908431860704770B51E4B1C68C4F38C
:1017B00002230124C3F10705052D2EBF0F2504FACE
:1017C00005F56D1E1E1D072E34BF0023DB1E2940AC
:1017D000994004FA03F3BDE870405B1E1A401143C0
:1017E000C8E7010007D4012200F01F010F4B8A4017
:1017F000400943F820207047401EB0F1807F01D39C
:10180000012070470A490B4A48600023F0201070FD
:101810008B600720086000207047000000E400E0B3
:1018200018ED00E00CED00E00000FA0500E100E03A
:1018300010E000E023ED00E038B508B9022032BD29
:1018400000F52774A3690BB10025A56101B16161A1
:10185000012121700270FFF7AAF9002032BD024673
:10186000002011B1C2F8B41270470220704780B551
:10187000FFF7D1F9002002BD10B5D0F8B422022440
:101880001AB11268904700B90024204610BD80B5F7
:10189000D0F8B42253680AE138B5044604F52A7535
:1018A000284600F0B2FB04F5257001210160428B4F
:1018B000017D426011F01F0003D002280BD005D338
:1018C0000EE02946204600F0B3F90DE029462046F7
:1018D00000F0E4FA08E02946204600F005FB03E0AA
:1018E00001F0800100F040F8002032BD38B5044618
:1018F00010460A0004F5257329D1196803291ED161
:1019000004F5B0714A680D68AA420BD2AD1A0D6099
:10191000954238BF2A46014692B2204600F0D1FBDC
:10192000002032BD196A086928B1187A032802D14B
:10193000096920468847204600F0CBFBF0E70529DF
:10194000EED100201860002100F00EF8E8E71A6AD6
:10195000906930B1187A032803D1926920469047E4
:10196000DEE7022032BD80212046FFF76DB938B591
:1019700004460800134604F5257543D1286802285B
:1019800033D1226A616A914207D2521A2262194601
:1019900092B2204600F083FB11E0E269B2FBF1F065
:1019A00001FB102090B98A4210D3686882420DD2A0
:1019B00000220021204600F072FB00206860002316
:1019C000002200212046FFF766F914E0296AC86862
:1019D00028B1287A032802D1C96820468847FFF732
:1019E000C2FF204600F07CFB05E0042818BF002859
:1019F00001D1FFF7B8FF287B012804BF002129731C
:101A0000002032BD2A6A506930B1287A032803D1F8
:101A1000526920469047F3E7022032BD38B50446AC
:101A2000402300220021FFF7FEF804F5AC700121ED
:101A300040220160C2604023002280212046FFF73F
:101A4000F2F80120402104F52572A0616162107254
:101A50000021116061600025506A156128B1126A89
:101A600061685368C9B220469847002032BD0174AE
:101A70000020704700F52770042201784170027041
:101A80000020704700F527700178042904BF4178D1
:101A900001700020704780B500F527710A78032A8D
:101AA00003D18969C96901B18847002002BD9847FF
:101AB000002002BD10B586B000F01AFB00F05CF803
:101AC0002A48016841F0100101600024026802F018
:101AD000100200920099026842F02002026003683E
:101AE00003F0200300930099026842F004020260B0
:101AF000006800F004000090009800F00BFB02A8C2
:101B000000210022002380E81E004720CDE90012BA
:101B1000174C1849A060616042F20F702061E260CA
:101B20008020E0616261201D00F01EFB08B100F022
:101B300063F84FF48050029002A9201D00F0E1FBF1
:101B400008B100F059F8002100910191201D69466B
:101B500000F0A4FC08B100F04FF86078217801286B
:101B600008BF00200129FAD10021F8E7181002402F
:101B7000180900200008004018B593B0282109A8D2
:101B800000F0BEFC1421684600F0BAFC05A8002154
:101B900000220023002480E81E00012109910B92FD
:101BA0004FF480310A911191012302224FF4E01188
:101BB0000D931092129109A800F0A6FC08B100F054
:101BC0001BF8022101910F204FF4806100900391D6
:101BD000029404940221684600F020FE08B100F04F
:101BE0000BF810210591089405A800F0D9FE08B162
:101BF00000F002F814B010BD72B6FEE730B528242C
:101C00000D0605D501F0070161430844283003E0C3
:101C10006143084400F5B4701AB900210173C38010
:101C200004E0038101211B0C01734381002030BDBE
:101C30002DE9FC410E460546307810F0600005F5B0
:101C4000277708D0202818BF402824D1BA69936884
:101C500028469847ACE0717809291CD8DFE811F0D4
:101C6000FD00120188000C0188008D000A00880028
:101C7000E800AB000022ADF800207088010A0129BD
:101C800070D0022961D003292CD0062922D007293F
:101C900004BF287C00286BD1B9690A6B684690475D
:101CA00007214170BDF8001081B1F188002910D0E2
:101CB000BDF80010F288914288BF1146ADF80010BF
:101CC0000146BDF80020284600F0E1F9F088002820
:101CD0006ED19FE0287C00284AD1B9694A6B6846DA
:101CE0009047DFE7C0B2052842D8DFE800F02720A0
:101CF00019120B0378698269002A39D0287C694659
:101D00009047CFE77869426992B3287C694690474B
:101D1000C8E7786902695AB3287C69469047C1E7E9
:101D20007869C26822B3287C69469047BAE7786927
:101D30008268EAB1287C69469047B3E778694268CF
:101D4000B2B1287C69469047ACE7287CB969002885
:101D5000684604D1896A884702224270A2E7C96AAC
:101D60008847F9E77A69287C13686946984799E7B4
:101D70003146284600F05DF91AE0B088002804BF1B
:101D8000F0880028F4D17488802CF1D238780328A8
:101D900004F07F04ECD0BC7021462846FEF76FFFAC
:101DA000284600F096F9002C0CBF01200220387064
:101DB0000020BDE8F681DFF8E080708888F8000038
:101DC00098F8004021460229D2DA3878022818D043
:101DD000032823D134B90220387069602846FFF700
:101DE00056FD17E069688C4214D0C9B22846FFF747
:101DF0004EFD6C6021462846FFF73EFD022809D1C2
:101E0000B6E73CB16C60032038702846FFF734FD1C
:101E10000228ADD0284600F05CF9C9E731462846D3
:101E200000F007F998F800102846FFF730FDBFE7EB
:101E3000F08801289CD13978491E012907D9891ECB
:101E400096D10122291D284600F021F9B0E7002093
:101E5000A860012205F10801F5E73878401E022844
:101E600086D8F288022A83D1B868012100B1032103
:101E7000E96005F10C01E6E77088012898D101219D
:101E8000B960C7E73878401E0228ECD87288012A6A
:101E90008ED10020B860BDE7C009002038B50D46DE
:101EA0000446287810F060001CBF2028402816D176
:101EB00004F527721078401E022810D82B79022BC7
:101EC0000DDA92699368204698470146E888002811
:101ED00008BF002906D1204600F0FBF802E02046AA
:101EE00000F0A7F8002032BDF8B50A78044608795A
:101EF00012F0600504F5277308D0202D18BF402D7F
:101F000066D19A6993682046984764E002F06002BF
:101F1000202A05D19A6993682046BDE8F440184705
:101F20004A7882B3012A11D0032A51D11B78022B9F
:101F300012D0032B4CD14A880ABB002818BF802836
:101F40001DD0C988D9B900F05CF818E01A78022AC7
:101F500002D0032A0AD03BE0002818BF802837D0DF
:101F600000F04FF8802100F04DF834E04A8892BB31
:101F700010F07F0103D001462046FEF76BFE20469D
:101F800000F0A7F827E0142600F07F021B787243C8
:101F9000A718022B07F5AA7500F0800202D0032BC8
:101FA0000FD015E0002818BF802811D10AB107F121
:101FB00014050020286002222946204600F067F818
:101FC00009E000F00F035E43A31932B19A696AB9C0
:101FD000204600F02EF80020F2BDD3F85821002A48
:101FE000F6D0002818BF802803D1E2E707F11405D6
:101FF000F7E701462046FEF733FE0028DAD001203D
:10200000D8E701462046FEF71FBE0A7802704B78DB
:1020100043708A78CB7802EB032242804B790A79AD
:1020200002EB032282808A79C97902EB0122C28005
:10203000704710B504468021FEF706FE2046BDE835
:1020400010400021FEF700BE00280B4600D170476B
:1020500070B50146002400E0641C11F8015B002DFE
:10206000FAD12406E40DA41C1480117819700322FF
:102070005A70022207E010F8011BD4B2521C195505
:10208000D6B2521C9D5501780029F4D170BD80B59F
:1020900013460222C0F89422C361036201E080B5B6
:1020A00013460A460021FEF7F0FD002002BD80B570
:1020B00013460322C0F8942200F5AE7213605360F9
:1020C00001E080B513460A460021FEF7E4FD00203A
:1020D00002BD80B50421C0F8941200230022E1E77C
:1020E00080B50521C0F8941200230022ECE700001F
:1020F00080B50748016841F0100101600320FFF737
:1021000046FB0F2000F0C0FC00F0DEFC002002BD0A
:102110000020024010B5104C104900222046FFF765
:102120008BFB08B1FFF768FD0D492046FFF797FBD1
:1021300008B1FFF761FD0B49204600F0F3FD08B13F
:10214000FFF75AFD2046FFF792FB18B1BDE810409B
:10215000FFF752BD10BD00BF54040020180100203D
:10216000440000203400002038B5040001D10120D3
:1021700032BD00F01EF818B900F017F800F0C1FCED
:10218000FFE702206870211D206800F017F9012088
:10219000A8720121A970E87029716871A971E871AC
:1021A000297268726970002032BD002129702046B2
:1021B000704704F13C056878704710B50446206804
:1021C00001698A0715D5C1688A0712D56FF0020127
:1021D000016101222277806910F0030F204602D0AE
:1021E00000F0A7FD03E000F0A5FD00F087F8002057
:1021F0002077206801694A0715D5C1684A0712D5BA
:102200006FF00401016102222277806910F4407F9F
:10221000204602D000F08DFD03E000F08BFD00F0C1
:102220006DF800202077206801690A0715D5C1687C
:102230000A0712D56FF00801016104222277C069F4
:1022400010F0030F204602D000F073FD03E000F011
:1022500071FD00F053F80020207720680169CA065C
:1022600015D5C168CA0612D56FF0100101610822A8
:102270002277C06910F4407F204602D000F059FD5B
:1022800003E000F057FD00F039F8002020772068C7
:102290000169CA0708D5C168CA0705D56FF00101F1
:1022A0000161204600F047FD206801690A0608D553
:1022B000C1680A0605D56FF080010161204600F073
:1022C0003BFD206801694A0608D5C1684A0605D564
:1022D0006FF040010161204600F02FFD2068016988
:1022E0008A060AD5C1688A0607D56FF02001016108
:1022F0002046BDE8104000F021BD10BD204600F092
:102300001EBD38B500F04EF801D1022032BD0120CB
:10231000207002226270DFF804012A68936803408B
:1023200093600868020018BF10282DD0202818BF1D
:10233000302829D0402823D0502816D0602818D023
:10234000702803D0B0F5005F07D021E000F025F839
:102350002868816841F0770105E000F01EF82868E0
:10236000816841F48041816012E000F012F8502150
:102370000BE0CA684968286800F069F8602104E049
:1023800000F007F8402100E00146286800F071F8ED
:102390000EE0CA68496828684AE0CB684A688968DC
:1023A00028686EE0054605F13C0420780128704756
:1023B0000120607000212170002032BD70B50368DB
:1023C000174E184C184DB04218BFB0F1804F03D0D3
:1023D000A84218BFA04209D14A6823F070031343F2
:1023E000B0421CBFB0F1804FA84201D0A04203D13F
:1023F000CA6823F4407313434A6923F080031343EC
:102400000360B0428B68C3620A68826202D10969C4
:10241000064A11600123436170BD00008800FFFF80
:10242000002C01400008004000040040302C014016
:1024300010B5036A046A64086400046223F00A03A6
:10244000846924F0F00444EA0214846123E010B5A6
:10245000036A23F0100303628369046A23F4704360
:1024600043EA023324F0A004836144EA01140462C5
:1024700010BD826822F07002114341F007018160B3
:10248000704710B5846824F47F442143114341EA26
:102490000321816010BD1943016210BD70B500F1C8
:1024A0003C031A78012A01D1022070BD01221A7062
:1024B00002245C7005686E68AC680A6826F07006D5
:1024C00016436E6002680C48824218BFB2F1804F1A
:1024D00005D00A4882421CBF064DAA4204D1486872
:1024E00024F0800404439460012159700020187086
:1024F00070BD000000080040002C014000040040B6
:10250000002200F01DBC00002DE9F843040016D0A5
:102510002078DFF84C64C10713D5706800F00C0018
:10252000042807D0706800F00C00082841D17068BA
:10253000C1033ED53068810303D56068002800F0F0
:1025400064812078DFF82874810719D5706810F04D
:102550000C0F07D0706800F00C00082861D170687B
:10256000C1035ED43068810703D52069012840F09B
:102570004C813168606921F0F80141EAC0013160A5
:102580002178080740F18180A069DFF8E81300286E
:1025900000F0A68001220A6000F0ECFB0546706A9C
:1025A000810763D400F0E6FB401B0228F7D9032023
:1025B0002EE16068B0F5803F04D1306840F480308F
:1025C000306014E008B930680AE0B0F5A02F306838
:1025D00006D140F480203060316841F4803105E05C
:1025E00020F480303060316821F4802131606068EF
:1025F00058B100F0BFFB054630688103A1D400F05C
:10260000B9FB401B6528F7D3D1E700F0B3FB0546C3
:102610003068810395D500F0ADFB401B6528F7D3EA
:10262000C5E72069A8B10121396000F0A3FB054688
:102630003068810705D400F09DFB401B0228F7D9C4
:10264000B5E73068616920F0F80040EAC100306009
:1026500096E7386000F08EFB0546316888078FD515
:1026600000F088FB401B0228F7D9A0E7DFF8F4024E
:102670000168C9084FF47A72B1FBF2F2009200BF10
:102680000098411E00280091F9D1207841076ED5AD
:10269000F0690025C10009D4F06940F08050F06174
:1026A0000125F06900F0805000900098DFF8C882A2
:1026B000D8F80000C10520D4D8F8000040F480709C
:1026C000C8F8000000F056FB8146D8F80000C105AC
:1026D00013D400F04FFBA0EB09006528F5D366E7A3
:1026E000086000F047FB0546706A8107CDD500F011
:1026F00041FB401B0228F7D959E7E068012808D0C0
:1027000008B9306A09E00528306A06D140F00400B3
:102710003062306A40F0010005E04008400030625D
:10272000306A20F00400306241F28938E06860B11C
:1027300000F020FB8146306A810713D400F01AFBB9
:10274000A0EB09004045F6D331E700F013FB8146CA
:10275000306A810706D500F00DFBA0EB090040456B
:10276000F6D324E71DB1F06920F08050F061E069F4
:1027700000284CD0716801F00C01082938D00228DB
:102780002AD100F047F805463068810105D500F0F0
:10279000F1FA401B0228F7D909E7206AB0F5803F1B
:1027A00005D17168A06821F400310143716072683D
:1027B000206A616A22F4741202430A4372600120A3
:1027C00000F029F804463068810120D400F0D2FAE4
:1027D000001B0228F7D9EAE600F01CF8044630682E
:1027E000810114D500F0C6FA001B0228F7D9DEE6F5
:1027F00001280AD07068226A00F48031914202BF39
:1028000000F47010616A884201D0012000E00020CD
:10281000BDE8F2830020386600F0ACBA2DE9F04143
:10282000040088464ED0554E00F077F802D200F0F2
:102830006FF847D120684A4D810712D5400703D56C
:10284000696841F4E06169602078010703D5686830
:1028500040F4605068606968A06821F0F0010143AD
:1028600069602178C80725D56068012802D12968E8
:102870008A0303E00228296802D18A0102D421E0F8
:102880008A071FD56968890840EA8100686000F0FE
:1028900071FA07466868616800F00C00B0EB810FC0
:1028A00008D000F067FAC01B41F289318842F1D3A9
:1028B00003202BE0306800F00700804504D200F0D0
:1028C00027F801D0012021E02078410705D56A686A
:1028D000E06822F4E06202436A602178080706D5C6
:1028E0006968206921F4605141EAC001696000F023
:1028F00019F86A6822491B4BC2F30312895CC8406D
:1029000018601A48006800F0BFF80020BDE8F081A8
:102910003168C90848EAC1013160306800F0070039
:1029200040457047174910480A6802F00C03082B0D
:1029300000D0704710B500BF14A4C2F38343D20384
:10294000E35C08D50968584314A3C1F340415A5CBD
:10295000B0FBF2F010BD18460B49484310BD000013
:10296000001002400C00002000127A000800002035
:1029700000004242800442420070004000200240B9
:10298000E02F00080410024000093D000203040586
:10299000060708090A0B0C0D0E0F101001020000AB
:1029A0002DE9FC410646354D3078C10750D5A86960
:1029B0000024C10009D4A86940F08050A861012416
:1029C000A86900F08050009000982D4F3868C1052C
:1029D00011D4386840F48070386000F0CBF980463C
:1029E0003868C10507D400F0C5F9A0EB08006528D8
:1029F000F6D303203FE0E86910F440701EBF716811
:102A000001F44071884218D01E49E86901220A6029
:102A1000002320F440700B60E861C0070DD500F082
:102A2000A9F90746E869810707D400F0A3F9C01B9C
:102A300041F289318842F5D3DBE7EA69706822F414
:102A400040720243EA611CB1A86920F08050A8617D
:102A50003078810705D52A68B06822F440420243E5
:102A60002A603178C80605D52968F06821F480010C
:102A7000014329600020BDE8F681000004100240F7
:102A8000007000404004424238B50D4D0D4B2A788D
:102A900004464FF47A711868B1FBF2F2B0FBF2F021
:102AA000FEF7AAFE50B9102C08D2002221464FF0A2
:102AB000FF30FEF779FEAC60002032BD012032BD50
:102AC000000000200C0000201B4881B0016841F08C
:102AD00001010160026802F001020092009942685F
:102AE00042F080524260406800F0805000900098B0
:102AF0001248016821F0E06141F00071016001B00D
:102B0000704700680E49884200D0704780B50D4874
:102B1000026842F0040202600022006800F0040033
:102B20000090002100981E20FEF73EFEBDE8024006
:102B30001E20FEF756BE000018100240040001409F
:102B4000000800401C100240F8B50646402303224E
:102B50008121FEF768F80122F2624023032201215D
:102B60003046FEF760F80120C6F86C0106F52E77B6
:102B70001820FEF796F800253860040008BF0125EC
:102B800009D02575796848688047022322460121CB
:102B90003046FEF780F82846F2BD10B50446812184
:102BA000FEF74CF80022E26201212046FEF746F8CB
:102BB0000021C4F86C1104F52E74206838B16068E7
:102BC000816888472068FEF779F80020206000209F
:102BD00010BDF8B500F527760025F369ADF8005073
:102BE00000220F78002417F0600721D0202F53D146
:102BF0004A78022A11D0032A08D0092A11D00A2AB9
:102C000007D00B2A48D18878586048E00122191D66
:102C100039E04888000A986041E0012203F1080188
:102C200031E001221A61CA881946FFF740FA36E0FE
:102C30004F7837B1062F0CD00A2F1ED00B2F25D07E
:102C40002AE03278032A27D102226946FFF71FFAC9
:102C500025E04B881B0A222B06D1CA88222AA8BF4E
:102C60002122316A0C6806E0212B04D1CA88284C45
:102C70000A2A28BF0922214605E03278032A0BD10F
:102C8000012203F10C01FFF702FA08E03278032A6F
:102C900002D18878D86002E0FFF7CBF902252846F8
:102CA000F2BD292101801B487047292101801A4863
:102CB00070472921018019487047D0F8B8020021D7
:102CC00001750020704738B5044604F52E710D6873
:102CD0004968CA682846904702232A4601212046AF
:102CE000FDF7D9FF002032BD10B500F52E710C683C
:102CF0002069012805D14968CA682046904700200C
:102D00002061002010BD0A210180054870470000A5
:102D1000000100207C000020A8000020D40000203A
:102D20000C0100200246022011B1C2F8BC120020A2
:102D300070477047704770477047704770477047DB
:102D400000B500BF130096469446103928BFA0E88E
:102D50000C50FAD85FEA417C28BF0CC048BF40F84D
:102D6000042BC90728BF20F8022B48BF00F8012B0D
:102D700000BD000001484068704700BF000000200F
:102D8000122008801A4870470420088019487047AC
:102D90002DE9104000F028F827A004E02DE91040AC
:102DA00000F022F82CA02146FFF74EF9204610BD76
:102DB00038B51A20088010494C68086889680F4D9A
:102DC000081809D00822A91C00F022F8042205F1F5
:102DD0001201204600F01CF8284632BD2DE91040B3
:102DE00000F002F821A0DEE70A46054C704700001B
:102DF0003401002048010020E8F7FF1F4C010020AB
:102E0000180700202DE91040FFF7EEFF1CA0CAE7CD
:102E100030B500230CE0040F0A2C2CBF37343034BB
:102E200001F8134001EB4305002400016C705B1CAA
:102E30009342F0DB30BD000053544D3332204375D4
:102E400073746F6D2048756D616E20696E74657264
:102E5000666163650000000053544D6963726F65DD
:102E60006C656374726F6E6963730000437573748D
:102E70006F6D2048494420436F6E6669670000000B
:102E8000437573746F6D2048494420496E746572B0
:102E9000666163650000000030B4002512E050F860
:102EA000042BD30744BF4A44521E091F042942F889
:102EB000045BFAD213468C0744BF15809B1CC907DC
:102EC00048BF1D7050F8041B0029E8D130BC704782
:102ED000FEE7FEE7FEE7FEE7FEE770477047704754
:102EE00000F00AB80248FDF773B90248FFF765B968
:102EF000680100201C09002002494A6808788218ED
:102F00004A60704700000020002070470020704792
:102F100080B5014640220448FEF720FC0349012306
:102F20000B70002002BD0000640900201909002078
:102F300010B5074979441831064C7C44163404E036
:102F40000A68081D114488470146A142F8D110BD06
:102F5000080000002400000041FFFFFF5C080000A3
:102F600068010020000000006BDDFFFF3801000059
:102F70009E0100000000002000F00DF8002801D0A4
:102F8000FFF7D6FFAFF300800020AFF30080FEF71D
:102F900091FD00F002F80120704700F001B8000038
:102FA0000746384600F002F8FBE7000080B5AFF3B3
:102FB0000080024A11001820ABBEFBE72600020089
:102FC0000548014603B4684680F30988AFF30080E2
:102FD000AFF30080FFF7D0FFA5EDF5FE70470000CE
:102FE00000000000000000000102030406070809B9
:102FF0000148804701480047DD2F0008C12F000825
:10300000FFF7FEBFFFF7FEBFFFF7FEBFFFF7FEBFF4
:10301000FFF7FEBFFFF7FEBFFFF7FEBFFFF7FEBFE4
:10302000FFF7FEBFFFF7FEBFFFF7FEBFFFF7FEBFD4
:10303000FFF7FEBFFFF7FEBFFFF7FEBFFFF7FEBFC4
:10304000FFF7FEBFFFF7FEBFFFF7FEBFFFF7FEBFB4
:10305000FFF7FEBFFFF7FEBFFFF7FEBFFFF7FEBFA4
:10306000FFF7FEBFFFF7FEBFFFF7FEBFFFF7FEBF94
:10307000FFF7FEBFFFF7FEBFFFF7FEBFFFF7FEBF84
:10308000FFF7FEBFFFF7FEBFFFF7FEBFFFF7FEBF74
:10309000FFF7FEBFFFF7FEBFFFF7FEBFFFF7FEBF64
:1030A000FFF7FEBF43010001221008201524F400A1
:1030B0000600FF0901A101150026FF0075089540D3
:1030C00009018102063008910295010901B102C08F
:1030D000002C100420092F00080D04121104100305
:1030E000492B00089B0412D30421471003E92C004C
:1030F00008BB0443C72C10610112AB1012A30412C9
:10310000B3041011072D000809022900010100C0B5
:10311000320904000002032B2011092111010001D2
:103120002221000705810340000507050107211A38
:10313000F1472C611A110110020A0600020826400C
:10314000141281A0128904129D0412910412B10478
:1031500012DD044004052E00081201281007830424
:103160005057000201020331F00508040309041A54
:0331700003000158
:0400000508002FC1FF
:00000001FF
